:020000040800F2
:100000009807002089010008D7160008051300088A
:10001000D51600083F030008411700080000000043
:10002000000000000000000000000000DB160008D7
:100030004103000800000000D9160008DD16000882
:10004000A3010008A3010008A3010008A301000800
:10005000A3010008A3010008A3010008A3010008F0
:10006000A3010008A3010008A3010008A3010008E0
:10007000A3010008A3010008A3010008A3010008D0
:10008000A3010008A3010008A3010008A3010008C0
:10009000A3010008A3010008A3010008A3010008B0
:1000A000A3010008A3010008A3010008A3010008A0
:1000B000A3010008A3010008A3010008A301000890
:1000C000A3010008A3010008A3010008A301000880
:1000D000A3010008A3010008A3010008A301000870
:1000E000A3010008A3010008A301000800F002F822
:1000F00000F03AF80AA090E8000C82448344AAF188
:100100000107DA4501D100F02FF8AFF2090EBAE885
:100110000F0013F0010F18BFFB1A43F0010318473B
:1001200088250000A8250000103A24BF78C878C1AF
:10013000FAD8520724BF30C830C144BF04680C60ED
:10014000704700000023002400250026103A28BF35
:1001500078C1FBD8520728BF30C148BF0B60704739
:100160001FB51FBD10B510BD00F0B4F81146FFF764
:10017000F7FF01F011FD00F0D2F803B4FFF7F2FF32
:1001800003BC00F0D5F80000094880470948004743
:10019000FEE7FEE7FEE7FEE7FEE7FEE7FEE7FEE737
:1001A000FEE7FEE704480549054A064B7047000094
:1001B0003F170008ED000008980100209807002074
:1001C000980300209803002010B5431C02E010F8AB
:1001D000011B71B18107FAD14FF0013202C88C1AAC
:1001E0008C4314EAC211F9D0C01A0A0603D0C01E0B
:1001F00010BDC01A10BD0A0401D0801E10BD090236
:10020000FCD0401E10BD02F0FF0343EA032242EA85
:10021000024200F037B84FF0000200B51346944692
:100220009646203922BFA0E80C50A0E80C50B1F14E
:100230002001BFF4F7AF090728BFA0E80C5048BF62
:100240000CC05DF804EB890028BF40F8042B08BF00
:10025000704748BF20F8022B11F0804F18BF00F8FC
:10026000012B704770477047704710B500F02AF8AF
:10027000006810BD10B5044600F024F8046010BDFD
:100280004FF000020429C0F0128010F0030C3FF47C
:10029000C4AFCCF1040CBCF1020F18BF00F8012B65
:1002A000A8BF20F8022BA1EB0C01FFF7B6BF5FEA55
:1002B000C17C24BF00F8012B00F8012B48BF00F8D7
:1002C000012B7047004870473401002000487047F8
:1002D000340100207546FFF7F9FFAE460500694678
:1002E000534620F00700854618B020B5FFF75AFFA7
:1002F000BDE820404FF000064FF000074FF0000827
:100300004FF0000B21F00701AC46ACE8C009ACE8A7
:10031000C009ACE8C009ACE8C0098D46704710B50B
:100320000446AFF300802046BDE81040FFF725BF2C
:1003300001491820ABBEFEE7260002007047FEE729
:100340007047000070B5044686B000204FF0804131
:1003500001F074FA06460D460020104901F06EFACD
:1003600032462B4601F02CFD01F0BEFE8440A4B2C3
:10037000FF22082103A8FFF746FF4FF47A720821F5
:1003800003A88DE8070002232246AE21044800F0AE
:10039000E9FB052000F0F2F806B070BD0000204037
:1003A000180000202DE9FF4F8946044685B0984685
:1003B00000204FF0804101F041FA06460D46002032
:1003C0001E4901F03BFA32462B4601F0F9FC01F0E0
:1003D0008BFE834608EB090004EBD000001B401C99
:1003E00000261FFA80FA354623E000BF04FA0BF01E
:1003F00040EA090080B203904946404601F017FAEE
:10040000074607984FF47A713044CDE9000702910E
:100410000223AE210A48039A00F07CFAA8EB0700F9
:100420001FFA80F8641CF019A4B24FF0000986B2DC
:100430006D1C5545DADB09B0BDE8F08F00002040A7
:10044000180000202DE9FF4F8946044685B09846E4
:1004500000204FF0804101F0F1F906460D460020E2
:10046000204901F0EBF932462B4601F0A9FC01F0DE
:100470003BFE834608EB090004EBD000001B401C48
:1004800000261FFA80FA354626E000BF04FA0BF07A
:1004900040EA090080B203904946404601F0C7F99E
:1004A000074607984FF47A713044CDE9000702916E
:1004B0000223AE210C48039A00F054FBA8EB07007E
:1004C0001FFA80F8F019641C86B2A4B24FF000093C
:1004D000052000F053F86D1C5545D7DB09B0BDE889
:1004E000F08F000000002040180000201FB50178A8
:1004F0008DF8001041788DF8011081788DF8021088
:10050000C1788DF8031001798DF8041041798DF8C8
:10051000051081798DF80610C1798DF80710017AE0
:100520008DF80810417A8DF80910817A8DF80A103B
:10053000C17A8DF80B10017B8DF80C10417B8DF882
:100540000D10817B8DF80E10C07B8DF80F000520FB
:1005500000F014F86846FFF737FE83B26A460021C0
:100560000320FFF76FFF02A8FFF72EFE83B202AA57
:1005700000210320FFF766FF1FBD000070B5044691
:1005800000F0FEF80546601C02D0044800780444E0
:1005900000F0F6F8401BA042FAD370BD080000201E
:1005A0002DE9F84FDFF8B891002409F1040A0AF1A7
:1005B000040B23460F270BF1040EC9E00125A540CB
:1005C0002A40AA427DD1674ED1F804C0ACEB0608A0
:1005D000B44532D014DCBCF1030F3AD009DCBCF1D5
:1005E000000F2AD0BCF1010F1CD0BCF1020F31D199
:1005F0001DE0BCF1110F17D0BCF1120F2AD119E088
:10060000B8F5881F19D006DCB8F5803F15D0B8F5CD
:10061000801F1FD111E0B8F5001F0ED0B8F5041FE0
:1006200018D10AE0CB6815E0CB681B1D12E0CB683F
:1006300008330FE0CB680C330CE08B682BB1012B37
:100640004FF0080303D0456104E0042302E0056194
:1006500000E00023FF2A01D8064601E000F104066D
:100660004FEA840501D9A5F12005D6F8008007FAE4
:1006700005FC28EA0C0803FA05F548EA0508C6F85F
:1006800000804D68ED0062D5374DAE6946F0010639
:10069000AE61AD6924F0030605F001050095334D08
:1006A00006EB050CDCF80850A607360F07FA06F82B
:1006B00025EA0805DFF8B880404503D14FF000086F
:1006C00017E044E0DFF8AC80404502D14FF001086C
:1006D0000FE0DFF8A480404502D14FF0020808E0A7
:1006E000DFF89880404502D14FF0030801E04FF059
:1006F000040808FA06F848EA0508CCF808804D68AE
:10070000D9F80060ED034D4601D5164300E096434D
:100710002E604D68DAF80060AD03554601D51643EA
:1007200000E096432E604D68DBF80060ED025D4608
:1007300001D5164300E096432E604D68DEF8006058
:10074000AD02754601D5164300E096432E60641C49
:100750000D682A46E5407FF431AFBDE8F88F000010
:100760000004014000001110001002400000014090
:1007700000080140000C014000100140001401403D
:1007800001488068704700000800002070B5040030
:1007900025D094F83D00002520B984F83C5020462F
:1007A00000F078FA242084F83D002068016821F0E8
:1007B000010101602068016841F400410160206886
:1007C000016821F40041016000F0B2FB4D4A61680C
:1007D000914201D84C4900E04C49884201D20120A5
:1007E00070BD4B492368B0FBF1F15E6826F03F060F
:1007F0000E435E606368934206D94FF49673594383
:100800004FF47A73B1FBF3F12368491C1E6A26F09A
:100810003F06314319626168914210D84900401E79
:10082000B0FBF1F2521CC2F30B02042A01D20420E5
:1008300022E0B0FBF1F0401CC0F30B001CE0A2680A
:10084000F2B301EBC10303EB0116431EB3FBF6F356
:100850005B1C43F480431B0549D092B301EBC102FA
:1008600002EB0111401EB0FBF1F0401CC0F30B0085
:1008700040F4804040F400402168CA694CF6FF73A0
:100880009A431043C861D4E9071001432068026805
:1008900022F0C00211430160D4E903010143206842
:1008A000826848F2FF339A4311438160D4E905011D
:1008B00008432168CA6822F0FF021043C86001E0C3
:1008C0000EE016E02068016841F001010160256436
:1008D000202084F83D00256384F83E50002070BD40
:1008E00001EB4106431EB3FBF6F35B1CB3E70120AB
:1008F000C2E701EB4101401EB0FBF1F0401CC0F328
:100900000B00B7E7A086010080841E0000093D00AF
:1009100040420F002DE9FF4F83B00025DDE910793B
:100920009A4693460446DDF848800095FFF728FF75
:10093000064694F83D0020287CD1192301228549E0
:100940002046009600F0EEFD0028F5D194F83C001A
:1009500001286FD0012084F83C0020680168C90795
:1009600003D1016841F0010101602068016821F4B0
:1009700000610160222084F83D00402084F83E00A0
:1009800025646762A4F82A90608D20857248E06231
:10099000CDE9008653465A462046049900F0CAFC29
:1009A00000287DD1208DDFF8B491202768B101287F
:1009B00014D00228206801681ED041F480610160D3
:1009C0002068416980690090B6E0206841698169CA
:1009D0000091016841F400710160ADE02068016898
:1009E00021F48061016072B62068416981690091DB
:1009F000016841F400710AE041F40061016072B6DF
:100A00002068416981690091016821F48061016079
:100A100062B691E0032868D801280CD0022843462A
:100A20004FF000024946204600960FD000F07AFDB4
:100A3000B0BB10E08BE032464146204600F0F1FDAD
:100A400070BB20680069616A08706CE000F06AFDA4
:100A500030BB72B634E02068016821F48061016027
:100A600072B620680069616A0870606A401C606242
:100A7000208D401E2085608D401E6085384846F2DE
:100A8000A8110068B0FBF1F0C0EBC00000EB8000E3
:100A90000090401E009008D020684069C04300E0EC
:100AA00029E040070CD50098F3E744F8305F6773FE
:100AB000A573206940F02000206162B625731AE01A
:100AC0002068016841F40071016020680069616A72
:100AD0000870606A401C6062218D491E2185618D0D
:100AE000491E618562B621681BE0324641462046B8
:100AF00000F097FD18B1012007B0BDE8F08F206825
:100B00000069616A0870606A401C6062218D491E3C
:100B10002185618D491E618521684A69D24352074A
:100B20000AD409690170606A401C6062208D401E11
:100B30002085608D401E6085208D00287FF46AAF7F
:100B400084F83D7084F83E5084F83C50D4E702208D
:100B5000D2E70000020010000000FFFF04000100C7
:100B6000140000202DE9FF4F83B09A46DDE911976C
:100B700093460446DDF84080FFF702FE054694F8F0
:100B80003D0020287FD119230122404920460095AD
:100B900000F0C8FC002876D194F83C00012872D0FF
:100BA000012084F83C0020680168C90703D101686E
:100BB00041F0010101602068016821F400610160D9
:100BC000212084F83D00402084F83E000026266461
:100BD000C4F82480A4F82A90608D20852C48E06217
:100BE000CDE9007553465A462046049900F020FC92
:100BF00070B930E02A463946204600F045FD58B12C
:100C0000206C042804D12068016841F4007101605F
:100C1000012007B0BDE8F08F606A216800780861A4
:100C2000606A401C6062218D491E89B22185628DF7
:100C3000521E628522685369DB435B070BD469B19E
:100C400000781061606A401C6062208D401E208523
:100C5000608D401E6085208D0028CBD12A46394604
:100C6000204600F039FC0028CAD154F83D0B016839
:100C700041F400710160202004F81E09E6776677D0
:100C80000020C6E7FFE70220C3E7000002001000D3
:100C90000000FFFF10B586B0002100910191029184
:100CA000039100680F4988421AD10F4CA06940F0A7
:100CB0000800A061A069694600F008000490C02007
:100CC000009012200190032003900848FFF768FC71
:100CD000E06940F40010E061E06900F40010049065
:100CE00006B010BD0054004000100240000C01404E
:100CF0000248816802781144816070470800002032
:100D0000074810B5016841F010010160032000F0B0
:100D100067F80F2000F006F800F024F8002010BD5E
:100D20000020024070B50D4D04464FF47A712878CA
:100D3000B1FBF0F00A490968B1FBF0F000F0CEFA1F
:100D400048B9102C07D200222146501E00F028F886
:100D500000206C6070BD012070BD00000800002004
:100D6000140000200C4808B5816941F0010181613F
:100D7000816901F001010091C16941F08051C161B7
:100D8000C06900F0805000900448416821F0E061A3
:100D900041F00071416008BD0010024000000140B8
:100DA000F0B40E4B1B680C46C3F30223C3F10705D6
:100DB000042D00D90425191D072901D2002300E0C4
:100DC000DB1E012606FA05F1491E214099409E408E
:100DD000761E16403143F0BC00F0B3BC0CED00E0D1
:100DE000064900F0070208684FF6FF03184040EA82
:100DF0000220034A10430860704700000CED00E039
:100E00000000FA052DE9F0470F46050061D0434E7A
:100E1000306800F00700B84209D2306820F00700BF
:100E200038433060306800F00700B84251D128687C
:100E30003B4C810712D5400703D5606840F4E06061
:100E400060602878000703D5606840F460506060F7
:100E50006068A96820F0F000084360602878C00747
:100E600028D06868012810D02168022810D089078E
:100E700000292EDA616821F0030101436160FFF768
:100E80007FFC804641F288390DE021688903EFE755
:100E90008901EDE7FFF774FCA0EB0801494502D991
:100EA0000320BDE8F0876068696800F00C00B0EBD3
:100EB000810FEFD1306800F00700B8420BD93068DD
:100EC00020F0070038433060306800F00700B84277
:100ED00001D00120E5E72878400705D56068E9687A
:100EE00020F4E060084360602878000706D5606859
:100EF000296920F4605040EAC100606000F028F8E1
:100F00006168084AC1F30311515CC8400649086092
:100F100006480068FFF706FF0020C2E700200240F5
:100F2000001002404C260008140000200C00002095
:100F30000448054900684968044AC1F30221515C2C
:100F4000C840704714000020001002405C260008D2
:100F500012A185B00FC98DE80F0014A0144A0068D3
:100F600004905168134801F00C03042B10D0082B97
:100F70000ED1C1F38343C9031DF803000AD551689C
:100F800004AAC1F34041515C0A4A5043B0FBF1F05E
:100F900005B0704708494843FAE70000020304051A
:100FA000060708090A0B0C0D0E0F101001020000B5
:100FB0000010024000127A0000093D002DE9F84FB0
:100FC000040070D02078C04DC00749D06868C0F3D5
:100FD0008100012807D06868C0F38100022809D188
:100FE0006868C00306D52868800339D56068002882
:100FF000E7D035E06068B0F5803F0BD010B1B0F5B8
:10100000A02F11D0286820F480302860286820F4B0
:10101000802002E0286840F480302860606890B149
:10102000FFF7AEFB06460AE0286840F480202860FF
:10103000F0E700BFFFF7A4FB801B642873D8286883
:101040008003F7D50CE0FFF79BFB064605E000BFE9
:10105000FFF796FB801B6428F0D828688003F7D43C
:1010600020789A4E80074FF001094FF0000839D5DB
:10107000686810F00C0F07D06868C0F38100022880
:1010800009D16868C00306D42868800714D5206990
:10109000012808D110E02069B0B1C6F80090FFF730
:1010A0006FFB074605E00AE1FFF76AFBC01B022859
:1010B000C4D828688007F7D52868616920F0F8004F
:1010C00040EAC10028600DE0C6F80080FFF758FB39
:1010D000074604E0FFF754FBC01B022823D828680A
:1010E0008007F7D4207800072CD57948A169D9B1B9
:1010F000C0F80090FFF744FB074604E0FFF740FB11
:10110000C01B02280FD8686A8007F7D571484FF4D2
:10111000FA510068B0FBF1F0009000BF0098411E4A
:101120000091FAD20EE080E0C0F80080FFF728FBC3
:10113000074604E0FFF724FBC01B022875D8686A45
:101140008007F7D42078400760D5E8690027C00001
:1011500008D4E86940F08050E861E869012700F0B0
:10116000805000905C480168C90513D4016883462B
:1011700041F480710160FFF703FB824606E000BF87
:10118000FFF7FEFAA0EB0A0064284ED8DBF8000057
:10119000C005F5D5E06801280AD008B1052813D0AC
:1011A000286A20F001002862286A20F0040002E08A
:1011B000286A40F001002862E06841F2883B98B15B
:1011C000FFF7DEFA82460BE0286A40F0040028624E
:1011D000EEE700BFFFF7D4FAA0EB0A0159455AD851
:1011E000286A8007F6D50CE0FFF7CAFA824605E0C8
:1011F000FFF7C6FAA0EB0A0159454CD8286A8007C8
:10120000F6D41FB1E86920F08050E861E06988B346
:101210006968C1F38101022944D00228C6F86080C0
:1012200004D0FFF7ADFA044638E034E0FFF7A8FA3F
:10123000074604E0FFF7A4FAC01B02282BD8286851
:101240008001F7D4206AB0F5803F05D16868A168B5
:1012500020F4003008436860D4E908010843696855
:1012600021F4741108436860C6F86090FFF788FAAB
:10127000044606E025E000BFFFF782FA001B0228C3
:1012800009D828688001F7D51BE000BFFFF778FA7E
:10129000001B022802D90320BDE8F88F28688001CE
:1012A000F4D40EE00128F7D06868226A00F4803197
:1012B000914204D1616A00F47010884201D001208B
:1012C000EAE70020E8E70000001002400000424288
:1012D00080044242140000200070004010B5401EFF
:1012E000B0F1807F01D3012010BD4FF0E024606198
:1012F0000F21601700F025FA0020A061072020616F
:10130000002010BDFEE701684A69D24352050FD4A0
:101310006FF480624A61002140F8301F202242733E
:101320008173026942F00402026101730120704777
:10133000002070472DE9F84F0446006889460B9D50
:1013400001689846174641F4806101602068016891
:1013500041F48071016000954FF0011B0022594655
:1013600020460A9B00F0DEF84FF4007A40B1206876
:101370000068C00501D5C4F840A00320BDE8F88F7F
:10138000216809F0FE0008612B46284920460A9A88
:1013900000F0FCF8F0BB20684169806900902A46A3
:1013A00020460A9900F070F940B1206C04283AD127
:1013B0002068016841F40071016034E0FEB2B8F1C8
:1013C000010F09D02168380A08612A4620460A9987
:1013D00000F05AF90028E8D1206806612A46204624
:1013E0000A9900F051F90028DFD12068016841F422
:1013F0008071016000950022594620460A9B00F04A
:1014000091F80028B3D1216809F0FF0040F00100F5
:10141000086100E007E02B46044920460A9A00F0E4
:10142000B5F80028AAD00120A8E7000002000100BA
:101430002DE9F843044600680D46DDE90897016888
:101440009846164641F4807101604B4600224FF0E9
:1014500001112046009700F065F848B12068006847
:10146000C00502D54FF4007020640320BDE8F88366
:10147000216805F0FE0008613B464A4615492046B2
:1014800000F084F888B920684169806900903A4684
:101490004946204600F0F8F848B1206C042804D1F1
:1014A0002068016841F4007101600120DEE7F5B2B7
:1014B000B8F1010F09D02168300A08613A4649465F
:1014C000204600F0E1F80028E7D1206805610020FF
:1014D000CCE700000200010070B516460D46044638
:1014E0000DE02046FFF70FFF08B1012070BD681C1A
:1014F00005D0FFF745F9801BA84207D835B1206811
:101500004069C0434007ECD4002070BD002044F87F
:10151000300F20216173A073216941F02001216106
:101520002073E2E72DE9F0471E4690460D4604463B
:10153000C1F30747DDF8209008E0701C06D0FFF7E4
:101540001FF9A0EB0900B0420FD876B12068012F37
:1015500018D0806925EA00000004000C14D0002196
:101560004145EAD00020BDE8F087002044F8300F64
:1015700020216173A073216941F020012161207352
:101580000120F0E74069E5E70121E9E72DE9F047AF
:101590009A4691460E46044600254FF02008C1F3B6
:1015A000074725E020684069C043400514D42068FF
:1015B000016841F40071016021686FF48060486146
:1015C000256384F83D8084F83E50206C40F0040090
:1015D000206484F83C501FE0B9F1FF3F08D0FFF7CA
:1015E000CFF8A0EB0A0149450CD8B9F1000F09D09A
:1015F0002068012F13D0806926EA00000004000C47
:101600000BD0CFE744F8305F84F80D80A5732069D4
:1016100040F02000206125730120BDE8F08740697B
:10162000EAE72DE9F041002590460E4604462027C2
:1016300017E04069C043C0060CD454F8301B6FF06B
:101640001000486144F810596777A577206A206236
:10165000257717E0FFF794F8A0EB0800B04208D810
:101660003EB120684169C9434906E2D40020BDE883
:10167000F08144F8305F6773A573206940F0200063
:10168000206125730120F2E770B516460D46044629
:101690000DE02046FFF737FE08B1012070BD681C41
:1016A00005D0FFF76DF8801BA84207D835B1206838
:1016B0004069C0430006ECD4002070BD002044F80F
:1016C000300F20216173A073216941F02001216155
:1016D0002073E2E7FEE7FEE770477047FFF708BBBD
:1016E00030B58FB028216846FEF795FD14210AA871
:1016F000FEF791FD01210804CDE9001000240294B9
:1017000002250491CDE907504FF4E0100990684696
:10171000FFF754FC08B172B6FEE70F20CDE90A05C9
:101720004FF48060CDE90C4002210AA80E94FFF727
:1017300069FB002801D072B6FEE70FB030BD7047DC
:10174000FEE70907090E002804DB00F1E02080F81D
:101750000014704700F00F0000F1E02080F8141D25
:1017600070472DE9F0414F1E00EBC7010446D1E957
:10177000000115461E4637F006020DD02A463346B4
:1017800000F0F8FC7F1E04EBC703D3E9002300F050
:101790005BFA37F00602F1D1022F25D0042F13D0C7
:1017A000062F18BFBDE8F0812A46334600F0E2FC60
:1017B000D4E90A2300F048FA2A46334600F0DAFC5E
:1017C000D4E9082300F040FA2A46334600F0D2FC60
:1017D000D4E9062300F038FA2A46334600F0CAFC62
:1017E000D4E9042300F030FA2A46334600F0C2FC64
:1017F000D4E9022300F028FA2A46334600F0BAFC66
:10180000D4E90023BDE8F04100F01EBA00221346DF
:101810001046014900F0D4BA0000F03F012200F068
:10182000CFBE002213461046114600F0C9BA421836
:10183000082A02D3C1F1080080B270472DE9F04DAB
:10184000C84A002490B0914205DA21F00043934247
:1018500001D805D120B110B0BDE8F04DFFF7DEBFD3
:10186000B1F5801F1BDA53EA000209D0002911DA12
:101870000120FEF7FFFC10B0BDE8F04DFFF7D1BF2F
:101880000220FEF7F7FCFFF7C1FF10B081F0004126
:10189000BDE8F08D6FF03504362200F091FE04EBC8
:1018A0002152C1F31308B049A2F2FF33414401F4BD
:1018B000801282F07F6103EB225281F0405100924E
:1018C00041EA08010022A94B00F05EFD044608F140
:1018D0000200A74EC0F313000D467E44032867D2D2
:1018E000D6E90023204600F0C3FB1ED10098002853
:1018F00002BFD6E9000110B0BDE8F08D00F023FC76
:1019000007460C469B4A9C4B00F034FC06460D46AD
:101910009A4A9B4B3846214600F02CFC10B03246C8
:101920002B46BDE8F04D00F08FB94FF05532954B86
:101930002046294600F01EFC0022934B00F018FDC3
:1019400006460F4622462B461046194600F012FC6A
:1019500032463B4600F00EFC064600980F46F0B1BA
:1019600000F0F1FB80468A46824A834B00F002FC7D
:1019700032463B4600F0FCFC22462B4600F004FDBC
:1019800005460C467D4A7E4B4046514600F0F2FB30
:1019900010B02A462346BDE8F04D00F0F5BC0B46DA
:1019A00010B0324620462946BDE8F04D00F0ECBCB0
:1019B00000224FF08043204600F046F902460B46D5
:1019C0002046294600F0FCF906460F46009800F034
:1019D000BAFBCDE9040132463B461046394600F0D9
:1019E000C9FB0C9069480C9A4044019009910B4640
:1019F000104600F0BFFB8246024665488B46C8F1A0
:101A000051080B4608F5D72803217844FFF7A9FEB3
:101A100052465B4600F0AEFB0A905E480D9152467E
:101A20005B4604217844FFF79CFE099B0C9A00F06A
:101A3000A1FB844601980D9B40EA080860460A9A7B
:101A400000F002F983460891B8F1000F4EDD4FF027
:101A5000FF322046294600F0B3FD22462B4600F017
:101A600089FB804600988A4660B3DDE90401414A5B
:101A7000414B00F07FFB099100905A464046514689
:101A8000089B00F0E1F832463B4600F073FB099BEF
:101A9000009A00F0D9F84246534600F069FC22460D
:101AA0002B4600F071FC04460D46DDE90401334A83
:101AB000334B00F05FFB10B022462B46BDE8F04DE3
:101AC00000F062BC5A464046089B00F0BDF8324622
:101AD0003B4600F04FFB4246534600F049FC10B035
:101AE00022462B46BDE8F04D00F042BC009840B3C2
:101AF000DDE904011F4A204B00F03CFB80468A468A
:101B00005A4620462946089B00F03EFC32463B469A
:101B100000F030FB4246534600F036FC22462B468E
:101B200000F032FC04460D46DDE90401134A144B73
:101B300000F020FB10B022462B46BDE8F04D00F02F
:101B400023BC0B465A462046294600F01DFC32466F
:101B50003B4600F00FFB10B022462B46BDE8F04D8F
:101B600000F006BC0000F07F645F09000000F03F59
:101B7000C20D0000763C7935EF39EA3D0000E0FE09
:101B8000422EE63F5555D53F0000E03F86EBF9FF7A
:101B90005A0C0000580C000008B5FFF7B1F8FFF729
:101BA0009FFD2448816941F020018161816901F034
:101BB00020010091816941F004018161816901F096
:101BC00004010091816941F00801816180691A492D
:101BD00000F00800009019484FF480420160184955
:101BE000416000218160C0E9031241618161C161EE
:101BF0000162FEF7CBFD08B172B6FEE700244FF498
:101C00000075A0B2FEF79EFB641CAC42F9DB0D48E8
:101C1000FEF76CFC094A6423543200210320FEF7CE
:101C2000C1FB064A6423B8320F210A20FEF7BAFB33
:101C3000FEE70000001002400054004018000020A1
:101C4000801A06000000002010B591EA030F48BF7B
:101C500083F0004300F1A083841A71EB030C05D2DA
:101C6000121943EB0C03001B61EB0C01DFF824E1BC
:101C70004FEA1154A4EB135C1EEA430F18BF9EEA0F
:101C8000445F73D023EA0E03DCF1200E21EA0451F5
:101C900043F4801332D322FA0CFE10EB0E0023FA29
:101CA0000CFE41EB0E01CCF1200E03FA0EFE10EB00
:101CB0000E0051F10001B1F5801FCCF1200E32D29F
:101CC00001EB045112FA0EF2BDE8104058BF704704
:101CD000401C38BF5FEA420218BF7047002814BF9B
:101CE00020F0010041F100014FEA410313F5001F0C
:101CF00038BF7047A1F1C04100F034BB012A43EB6B
:101D00000302ACF1200CDCF11F0E32BF4FF0000ECD
:101D100023FA0CF310EB030041EB0451B4EB115F19
:101D2000D0D0A1EB045101F5801149085FEA3000E1
:101D300001EB04510ED350F1000038BF12FA0EFE31
:101D400008D1BDE81040C9E7401C38BF5FEA420235
:101D5000CAD1C3E7BDE810404FEA410313F5001FA5
:101D600038BF7047A1F1C04100F0FCBA9EEA445F61
:101D700008D011EA5E0FBDE8104004BF01F0004139
:101D800000207047BDE8104070B500F09DFA00BF1C
:101D900064FBBE3E0000E0FF02494FF0000000F08F
:101DA000DDBB00BF0000F87F491058BFC1F14041C2
:101DB0005B1058BFC3F140438B42EFF30080704784
:101DC0002DE9C04130B4DFF8A0C23CEA111418BFBD
:101DD0003CEA131400F0EC8081EA03051CEA1114BC
:101DE00044EAD57418BF1CEA131500F0C780A4EBB1
:101DF00005044FF0004545EAC12145EAC32341EA05
:101E0000505143EA525304F17F74994204F500346F
:101E10004FEAC0204FEAC22208BF904200F09C80E7
:101E20004FEA13650FF24016765D4FEA134506FB45
:101E300005F7C7F1807706FB07F74FEAD737A7FB0F
:101E400003687642C8F58038A7FB06CE38BFA8F1F4
:101E5000010807FB08E64FF0000EA6FB028CE6FB2C
:101E600003CEDCF1000CCEF1004E38BFAEF1010E16
:101E7000A6FB0C584FF000074FF00005E6FB0E875D
:101E8000A1FB08C6A0FB07CE16EB0E0645F1000528
:101E9000E1FB076515F1E04E7EBFA4F580345FEAF3
:101EA00046066D4116F1800745F100054FEA1727F8
:101EB0004FEA066647EA0567A6F1DE46B6F1805F9F
:101EC0004FEA15251FD9384624F0010C05EBC471E3
:101ED000BCF1FE6F01EB0C1102D8F0BCBDE8008133
:101EE00024425CBF01F5801E9EEAC47F02D4F0BC90
:101EF000BDE80081244238D4F0BCA1F1C041BDE866
:101F0000004100F02FBA4FEAD22242EA43524FEA90
:101F1000D323A7FB02864FEAD02040EA415007FBBB
:101F200003661EEA0E0F4FEAD12105FB026658BF79
:101F3000A6EB0056B6EB00564FEA520E4EEAC37EB1
:101F400018EB0E0E56EB530EBDD518EB02085E4192
:101F50007F1C55F10005B6E74FF480154FF00007E0
:101F60004FF000064FF00008ADE7F0BC4FF0000066
:101F700001F1C04101F00041BDE8008111EA0C1FF0
:101F80000CEA131500D00CE013EA0C1F00F02580BA
:101F90004FF00000F0BC81EA030101F00041BDE810
:101FA0000081F0BCBDE8004181EA030100F0DAB92C
:101FB000F0BCBDE8004170B500F086F9097EFC3E3A
:101FC00000F007B881EA03014FF0000001F0004182
:101FD000704781EA030100F0C5B9F0BCBDE80041DB
:101FE0004FF0000021497047FFFDFBF9F7F5F4F2CF
:101FF000F0EEEDEBE9E8E6E4E3E1E0DEDDDBDAD8A4
:10200000D7D5D4D3D1D0CFCDCCCBCAC8C7C6C5C401
:10201000C2C1C0BFBEBDBCBBBAB9B8B7B6B5B4B318
:10202000B2B1B0AFAEADACABAAA9A8A8A7A6A5A403
:10203000A3A3A2A1A09F9F9E9D9C9C9B9A999998C7
:102040009797969595949393929191908F8F8E8E6A
:102050008D8C8C8B8B8A89898888878786858584F7
:1020600084838382828181800000FF070000F87FE3
:1020700051EA030C17D41CF5801F58BFBCF5801F14
:1020800000F10680994218BF704708BF9042704720
:1020900007D711F5801F58BF13F5801F19D4994237
:1020A0007047894270471CF5801F08D5BCF5801F1A
:1020B000F7D58B4218BF704708BF824270474FF474
:1020C000001C1CEB410F38BF1CEB430F01D28B42AD
:1020D000704770B500F0F8F8922449004FF00051B5
:1020E0004FF08053FFF760BE4FEA41034FEA53536E
:1020F000A3F58063D3F11E03C8BFD3F1210C0CDD1F
:102100004FF0004242EAC12242EA505232FA03FC46
:102110008CEAE17CACEBE1707047102BC4BF00206F
:10212000704703F5787CBCF1FF3F04D06FF00042AC
:1021300082EA2100704770B500F0C6F84992248009
:1021400000207047F2E710F0004248BF4042B0FA6A
:1021500080F310FA03F10AD0C3F11D0303F5806385
:102160004FEA415002EB035202EBD12170474FF08E
:1021700000007047DFF848C170B51CEA111E1EBF91
:102180001CEA13159EEA0C0F95EA0C0F00F06F8005
:1021900081EA030423EA4C134EEAD47E21EA4C116F
:1021A00041F4801143F48013AE44A1FB024CA0FB28
:1021B0000365AEF17F7E361955EB0C05A1FB034C90
:1021C0004CF10003A0FB021C16EB0C06654153F119
:1021D0000003094218BF46F0010613F4007F0BD13B
:1021E0004FEA03314FEA0530340341EA155140EA22
:1021F00016506FF003020AE04FEAC3214FEAC520F0
:10220000F40241EA555140EA56506FF0020202EBE7
:102210002E4201EB025585EACE710AD05FEA440CEA
:1022200018BF24F0004450F1000041F1000120EA01
:10223000D47040F2FE7C624500D270BDA84214BF4B
:102240004FF080444FF04044002E08BF0024BEF100
:10225000806FA8BFA1F1C041BDE8704080F28280CC
:102260004FF0000001F1C04101F0004170479EEACB
:102270000C0F0CEA131518BF95EA0C0F06D04FF09F
:10228000000081EA030E0EF0004170BD00F01CF862
:102290008900013E00F007B800F009B84FEA430C8E
:1022A0005FEA5C5C08D081EA030100F05BB84FEAAA
:1022B000410C5FEA5C5CF6D14FF0000001497047C9
:1022C0000000FF070000F87F0EF1020E2EF0030E53
:1022D0005EF8046B364205D4012A43EB030515F57D
:1022E000001F12D8012841EB010C1CF5001F0CD86F
:1022F0000ED14FEAD17C15F5001F0CEB4C0C0CF104
:10230000020C08BF4CEBD37C04E04FF0080C01E05A
:102310004FEAD37C0CEB4C0526FA05F606F00706CF
:10232000B6F1040C06D20EEB860CBDE870404CF002
:10233000010C6047DFE80CF0090B02024FF000418E
:102340004FF00000A1F5002170BD1946104601288C
:1023500051EB010418BFD4F5001484BF002001F034
:10236000004170BD0808A0F500114FEA3101704727
:1023700091EA030F10B581F000413FF56DAC83F099
:10238000004300F009B8000010B591EA030F48BF00
:1023900083F000433FF560AC841A71EB030C07D265
:1023A00012198CF0004C43EB0C03001B61EB0C0189
:1023B000DFF8A4E14FEA1154A4EB135C1EEA430FCB
:1023C00018BF9EEA445F00F0B08023EA6E035242D9
:1023D00021EA0451C3EB6E0338BF5B1EDCF1200E13
:1023E00025D322FA0CFE10EB0E0043FA0CFE41EB53
:1023F0000E01CCF1200E03FA0EFE10EB0E0051F18F
:102400000001CCF1200E29D412FA0EF201EB045196
:10241000BDE8104058BF7047401C1CBFB2F1004FD0
:10242000704700280CBF491C20F00100704712EBD8
:10243000020E43EB030218BF4FF0010E4EEA4202B8
:10244000ACF1200CDCF11E0E54D943FA0CFE10EB5B
:102450000E0051F1FF31CCF11E0ED5D50EF1010E5B
:1024600012FA0EFE404141EB010101EB445C5FEAD0
:102470005C5C10D910EBDE7001EB045138BFBEF18B
:10248000004FBDE8104018BF704700280CBF491C22
:1024900020F00100704730D24FEAD42C11F5001122
:1024A00024F400641BD0B1FA81F20B3AA41AA41EE2
:1024B000D2F12003914030FA03F31943904001EB2D
:1024C000CC71002C01EB0451BDE81040A8BF70474F
:1024D00001F1C0414FF0000001F000417047B0FA37
:1024E00080F310FA03F100D110BDE41A173C48053F
:1024F000C90AE4E701EB045110BD491001EB045196
:10250000BDE810404FEA300002E04FF00001704794
:102510004A0008BF0042F8D0B2F5001F28BF70473C
:1025200001F000414FF0000070479EEA445F07D081
:1025300011EA5E0FBDE8104004BF00210020704783
:10254000BDE8104070B5FFF7BFFE00BF40DFF63EAC
:1025500083F00041104670470000E0FF0CF00F03CD
:10256000092B08BF082000F059800A2B0BD0082B3C
:1025700018BF704708BF1CF0400F0AD04FF0000092
:102580004FF0000170471CF0400F18BF4FF00040A3
:1025900070471CF0100F08D020F0704300F07F420D
:1025A00042EAD3014FEA4370704700F0604021F0E7
:1025B0007F4242EA000201F07F4040EA72707047B9
:1025C0004FF0FF0C4CF4E06C1CEA11531CBF9CEA6A
:1025D000030C9445C2BFDA4201EB02517047002B55
:1025E0000DD0BCF1000F0FD0002A01F00041A4BFB4
:1025F00041F0E04141F07F614FF00000704701F091
:1026000000414FF00000704750EA01334FF09B0C3F
:1026100018BF4CF0806C7FF4BFAB70471CF4801F78
:1026200011D01CF4E02F03D06FEACC314900704781
:102630004FF04050EFF3008222F0704242EA000275
:1026400082F3008870474FF00000704700000000E0
:102650000000000001020304060708090000000052
:10266000010203040000000004FA97999999D93FE8
:10267000AF788E1DC571CC3F9FC678D0099AC33FF5
:10268000935555555555E53F599322942449D23FCA
:10269000DE03CB966446C73F44523EDF12F1C23F91
:1026A0000000000000000000C82600080000002014
:1026B0001800000028010008E0260008180000208B
:1026C0008007000044010008353030303030000011
:1026D0000100000010000000000000000024F400D1
:04000005080000ED02
:00000001FF
